{
  "contractName": "ECRecovery",
  "abi": [
    {
      "inputs": [
        {
          "internalType": "bytes32",
          "name": "hash",
          "type": "bytes32"
        },
        {
          "internalType": "bytes",
          "name": "sig",
          "type": "bytes"
        }
      ],
      "name": "recover",
      "outputs": [
        {
          "internalType": "address",
          "name": "",
          "type": "address"
        }
      ],
      "stateMutability": "pure",
      "type": "function"
    }
  ],
  "bytecode": "0x61023e610026600b82828239805160001a60731461001957fe5b30600052607381538281f3fe73000000000000000000000000000000000000000030146080604052600436106100355760003560e01c806319045a251461003a575b600080fd5b6100fd6004803603604081101561005057600080fd5b81019080803590602001909291908035906020019064010000000081111561007757600080fd5b82018360208201111561008957600080fd5b803590602001918460018302840111640100000000831117156100ab57600080fd5b91908080601f016020809104026020016040519081016040528093929190818152602001838380828437600081840152601f19601f820116905080830192505050505050509192919290505050610129565b604051808273ffffffffffffffffffffffffffffffffffffffff16815260200191505060405180910390f35b60008060008060418551146101445760009350505050610202565b6020850151925060408501519150606085015160001a9050601b8160ff16101561016f57601b810190505b601b8160ff16141580156101875750601c8160ff1614155b156101985760009350505050610202565b60018682858560405160008152602001604052604051808581526020018460ff1681526020018381526020018281526020019450505050506020604051602081039080840390855afa1580156101f2573d6000803e3d6000fd5b5050506020604051035193505050505b9291505056fea26469706673582212209e68bd676fe44175794a5a4ac8e607f6c7c78e900947ce83b93e8241e808f29164736f6c63430007000033",
  "immutableReferences": {},
  "source": "// SPDX-License-Identifier: MIT\r\n\r\npragma solidity 0.7.0;\r\n\r\n/**\r\n * @title Eliptic curve signature operations\r\n *\r\n * @dev Based on https://gist.github.com/axic/5b33912c6f61ae6fd96d6c4a47afde6d\r\n */\r\n\r\nlibrary ECRecovery {\r\n    /**\r\n     * @dev Recover signer address from a message by using his signature\r\n     * @param hash bytes32 message, the hash is the signed message. What is recovered is the signer address.\r\n     * @param sig bytes signature, the signature is generated using web3.eth.sign()\r\n     */\r\n    function recover(bytes32 hash, bytes memory sig)\r\n        public\r\n        pure\r\n        returns (address)\r\n    {\r\n        bytes32 r;\r\n        bytes32 s;\r\n        uint8 v;\r\n\r\n        //Check the signature length\r\n        if (sig.length != 65) {\r\n            return (address(0));\r\n        }\r\n\r\n        // Divide the signature in r, s and v variables\r\n        assembly {\r\n            r := mload(add(sig, 32))\r\n            s := mload(add(sig, 64))\r\n            v := byte(0, mload(add(sig, 96)))\r\n        }\r\n\r\n        // Version of signature should be 27 or 28, but 0 and 1 are also possible versions\r\n        if (v < 27) {\r\n            v += 27;\r\n        }\r\n\r\n        // If the version is correct return the signer address\r\n        if (v != 27 && v != 28) {\r\n            return (address(0));\r\n        } else {\r\n            return ecrecover(hash, v, r, s);\r\n        }\r\n    }\r\n}\r\n",
  "sourcePath": "C:\\Users\\Iyke\\Documents\\dApps\\react-tidos-pay\\src\\contracts\\libraries\\ECRecovery.sol",
  "compiler": {
    "name": "solc",
    "version": "0.7.0+commit.9e61f92b.Emscripten.clang"
  },
  "schemaVersion": "3.4.3",
  "updatedAt": "2021-10-26T12:15:47.771Z",
  "devdoc": {
    "details": "Based on https://gist.github.com/axic/5b33912c6f61ae6fd96d6c4a47afde6d",
    "kind": "dev",
    "methods": {
      "recover(bytes32,bytes)": {
        "details": "Recover signer address from a message by using his signature",
        "params": {
          "hash": "bytes32 message, the hash is the signed message. What is recovered is the signer address.",
          "sig": "bytes signature, the signature is generated using web3.eth.sign()"
        }
      }
    },
    "title": "Eliptic curve signature operations",
    "version": 1
  },
  "userdoc": {
    "kind": "user",
    "methods": {},
    "version": 1
  }
}