{
  "contractName": "Feeless",
  "abi": [
    {
      "inputs": [
        {
          "internalType": "address",
          "name": "",
          "type": "address"
        }
      ],
      "name": "nonces",
      "outputs": [
        {
          "internalType": "uint256",
          "name": "",
          "type": "uint256"
        }
      ],
      "stateMutability": "view",
      "type": "function"
    },
    {
      "inputs": [
        {
          "internalType": "address",
          "name": "sender",
          "type": "address"
        },
        {
          "internalType": "address",
          "name": "target",
          "type": "address"
        },
        {
          "internalType": "bytes",
          "name": "data",
          "type": "bytes"
        },
        {
          "internalType": "uint256",
          "name": "nonce",
          "type": "uint256"
        },
        {
          "internalType": "bytes",
          "name": "sig",
          "type": "bytes"
        }
      ],
      "name": "performFeelessTransaction",
      "outputs": [],
      "stateMutability": "payable",
      "type": "function"
    }
  ],
  "bytecode": "0x608060405234801561001057600080fd5b50610669806100206000396000f3fe6080604052600436106100295760003560e01c806351b794951461002e5780637ecebe00146101ca575b600080fd5b6101c8600480360360a081101561004457600080fd5b81019080803573ffffffffffffffffffffffffffffffffffffffff169060200190929190803573ffffffffffffffffffffffffffffffffffffffff169060200190929190803590602001906401000000008111156100a157600080fd5b8201836020820111156100b357600080fd5b803590602001918460018302840111640100000000831117156100d557600080fd5b91908080601f016020809104026020016040519081016040528093929190818152602001838380828437600081840152601f19601f820116905080830192505050505050509192919290803590602001909291908035906020019064010000000081111561014257600080fd5b82018360208201111561015457600080fd5b8035906020019184600183028401116401000000008311171561017657600080fd5b91908080601f016020809104026020016040519081016040528093929190818152602001838380828437600081840152601f19601f82011690508083019250505050505050919291929050505061022f565b005b3480156101d657600080fd5b50610219600480360360208110156101ed57600080fd5b81019080803573ffffffffffffffffffffffffffffffffffffffff16906020019092919050505061061b565b6040518082815260200191505060405180910390f35b8373ffffffffffffffffffffffffffffffffffffffff163073ffffffffffffffffffffffffffffffffffffffff161461026757600080fd5b6000848484604051602001808473ffffffffffffffffffffffffffffffffffffffff1660601b815260140183805190602001908083835b602083106102c1578051825260208201915060208101905060208303925061029e565b6001836020036101000a038019825116818451168082178552505050505050905001828152602001935050505060405160208183030381529060405280519060200120905073__ECRecovery____________________________6319045a2582846040518363ffffffff1660e01b81526004018083815260200180602001828103825283818151815260200191508051906020019080838360005b8381101561037757808201518184015260208101905061035c565b50505050905090810190601f1680156103a45780820380516001836020036101000a031916815260200191505b50935050505060206040518083038186803b1580156103c257600080fd5b505af41580156103d6573d6000803e3d6000fd5b505050506040513d60208110156103ec57600080fd5b81019080805190602001909291905050506000806101000a81548173ffffffffffffffffffffffffffffffffffffffff021916908373ffffffffffffffffffffffffffffffffffffffff1602179055508573ffffffffffffffffffffffffffffffffffffffff1660008054906101000a900473ffffffffffffffffffffffffffffffffffffffff1673ffffffffffffffffffffffffffffffffffffffff161461049457600080fd5b82600160008060009054906101000a900473ffffffffffffffffffffffffffffffffffffffff1673ffffffffffffffffffffffffffffffffffffffff1673ffffffffffffffffffffffffffffffffffffffff1681526020019081526020016000206000815480929190600101919050551461050e57600080fd5b60008573ffffffffffffffffffffffffffffffffffffffff1634866040518082805190602001908083835b6020831061055c5780518252602082019150602081019050602083039250610539565b6001836020036101000a03801982511681845116808217855250505050505090500191505060006040518083038185875af1925050503d80600081146105be576040519150601f19603f3d011682016040523d82523d6000602084013e6105c3565b606091505b50509050806105d157600080fd5b60008060006101000a81548173ffffffffffffffffffffffffffffffffffffffff021916908373ffffffffffffffffffffffffffffffffffffffff16021790555050505050505050565b6001602052806000526040600020600091509050548156fea26469706673582212204f8e093ca887e7d8b58f79f82a43af6044a1f28944402d619517952e212a844764736f6c63430007000033",
  "immutableReferences": {},
  "source": "// SPDX-License-Identifier: MIT\r\n\r\npragma solidity 0.7.0;\r\n\r\nimport { ECRecovery } from \"./libraries/ECRecovery.sol\";\r\n\r\n\r\ncontract Feeless {\r\n    \r\n    address internal msgSender;\r\n    mapping(address => uint256) public nonces;\r\n    \r\n    modifier feeless {\r\n        if (msgSender == address(0)) {\r\n            msgSender = msg.sender;\r\n            _;\r\n            msgSender = address(0);\r\n        } else {\r\n            _;\r\n        }\r\n    }\r\n\r\n    function performFeelessTransaction(address sender, address target, bytes memory data, uint256 nonce, bytes memory sig) public payable {\r\n        require(address(this) == target);\r\n        \r\n        // bytes memory prefix = \"\";\r\n        bytes32 hash = keccak256(abi.encodePacked(target, data, nonce));\r\n        //  bytes32 hash = keccak256(prefix, keccak256(abi.encodePacked(target, data, nonce)));\r\n        msgSender = ECRecovery.recover(hash, sig);\r\n        require(msgSender == sender);\r\n        require(nonces[msgSender]++ == nonce);\r\n        \r\n                (bool success,  ) = target.call{value: msg.value}(data);\r\n\r\n        require(success);\r\n        msgSender = address(0);\r\n    }\r\n    \r\n}",
  "sourcePath": "C:\\Users\\Iyke\\Documents\\dApps\\react-tidos-pay\\src\\contracts\\Feeless.sol",
  "compiler": {
    "name": "solc",
    "version": "0.7.0+commit.9e61f92b.Emscripten.clang"
  },
  "schemaVersion": "3.4.3",
  "updatedAt": "2021-10-26T12:15:47.707Z",
  "devdoc": {
    "kind": "dev",
    "methods": {},
    "version": 1
  },
  "userdoc": {
    "kind": "user",
    "methods": {},
    "version": 1
  }
}