{
  "contractName": "Payment",
  "abi": [
    {
      "inputs": [
        {
          "internalType": "address",
          "name": "tokenContract",
          "type": "address"
        }
      ],
      "stateMutability": "nonpayable",
      "type": "constructor"
    },
    {
      "anonymous": false,
      "inputs": [
        {
          "indexed": true,
          "internalType": "address",
          "name": "tokenContract",
          "type": "address"
        }
      ],
      "name": "CurrencyDisabled",
      "type": "event"
    },
    {
      "anonymous": false,
      "inputs": [
        {
          "indexed": true,
          "internalType": "address",
          "name": "tokenContract",
          "type": "address"
        }
      ],
      "name": "CurrencyEnabled",
      "type": "event"
    },
    {
      "anonymous": false,
      "inputs": [
        {
          "indexed": true,
          "internalType": "address",
          "name": "from",
          "type": "address"
        },
        {
          "indexed": true,
          "internalType": "bytes32",
          "name": "txRef",
          "type": "bytes32"
        },
        {
          "indexed": false,
          "internalType": "uint256",
          "name": "amount",
          "type": "uint256"
        }
      ],
      "name": "DepositReceived",
      "type": "event"
    },
    {
      "anonymous": false,
      "inputs": [
        {
          "indexed": true,
          "internalType": "address",
          "name": "previousOwner",
          "type": "address"
        },
        {
          "indexed": true,
          "internalType": "address",
          "name": "newOwner",
          "type": "address"
        }
      ],
      "name": "OwnershipTransferred",
      "type": "event"
    },
    {
      "anonymous": false,
      "inputs": [
        {
          "indexed": true,
          "internalType": "address",
          "name": "from",
          "type": "address"
        },
        {
          "indexed": true,
          "internalType": "address",
          "name": "tokenContract",
          "type": "address"
        },
        {
          "indexed": false,
          "internalType": "uint256",
          "name": "amount",
          "type": "uint256"
        }
      ],
      "name": "PaymentWithdrawn",
      "type": "event"
    },
    {
      "inputs": [],
      "name": "owner",
      "outputs": [
        {
          "internalType": "address",
          "name": "",
          "type": "address"
        }
      ],
      "stateMutability": "view",
      "type": "function"
    },
    {
      "inputs": [],
      "name": "renounceOwnership",
      "outputs": [],
      "stateMutability": "nonpayable",
      "type": "function"
    },
    {
      "inputs": [
        {
          "internalType": "address",
          "name": "newOwner",
          "type": "address"
        }
      ],
      "name": "transferOwnership",
      "outputs": [],
      "stateMutability": "nonpayable",
      "type": "function"
    },
    {
      "inputs": [
        {
          "internalType": "address",
          "name": "tokenContract",
          "type": "address"
        }
      ],
      "name": "enableCurrency",
      "outputs": [],
      "stateMutability": "nonpayable",
      "type": "function"
    },
    {
      "inputs": [
        {
          "internalType": "address",
          "name": "tokenContract",
          "type": "address"
        }
      ],
      "name": "disableCurrency",
      "outputs": [],
      "stateMutability": "nonpayable",
      "type": "function"
    },
    {
      "inputs": [
        {
          "internalType": "address",
          "name": "tokenAddress",
          "type": "address"
        }
      ],
      "name": "withdraw",
      "outputs": [],
      "stateMutability": "nonpayable",
      "type": "function"
    },
    {
      "inputs": [
        {
          "internalType": "bytes32",
          "name": "txRef",
          "type": "bytes32"
        },
        {
          "internalType": "uint256",
          "name": "txAmount",
          "type": "uint256"
        },
        {
          "internalType": "address",
          "name": "tokenContract",
          "type": "address"
        }
      ],
      "name": "deposit",
      "outputs": [
        {
          "internalType": "bool",
          "name": "",
          "type": "bool"
        }
      ],
      "stateMutability": "nonpayable",
      "type": "function"
    }
  ],
  "bytecode": "0x608060405234801561001057600080fd5b506040516112af3803806112af8339818101604052602081101561003357600080fd5b810190808051906020019092919050505061006061005561010060201b60201c565b61010860201b60201c565b60018060008373ffffffffffffffffffffffffffffffffffffffff1673ffffffffffffffffffffffffffffffffffffffff16815260200190815260200160002060006101000a81548160ff0219169083151502179055508073ffffffffffffffffffffffffffffffffffffffff167f9b85e09e3c2da0203ce69fd59b1c0b098235e165f970530306068a69aa147bfe60405160405180910390a2506101cc565b600033905090565b60008060009054906101000a900473ffffffffffffffffffffffffffffffffffffffff169050816000806101000a81548173ffffffffffffffffffffffffffffffffffffffff021916908373ffffffffffffffffffffffffffffffffffffffff1602179055508173ffffffffffffffffffffffffffffffffffffffff168173ffffffffffffffffffffffffffffffffffffffff167f8be0079c531659141344cd1fd0a4f28419497f9722a3daafe3b4186f6b6457e060405160405180910390a35050565b6110d4806101db6000396000f3fe608060405234801561001057600080fd5b506004361061007d5760003560e01c8063715018a61161005b578063715018a61461017857806388ca74e2146101825780638da5cb5b146101c6578063f2fde38b146101fa5761007d565b80633563d6f91461008257806351cff8d9146100c65780636ebf181b1461010a575b600080fd5b6100c46004803603602081101561009857600080fd5b81019080803573ffffffffffffffffffffffffffffffffffffffff16906020019092919050505061023e565b005b610108600480360360208110156100dc57600080fd5b81019080803573ffffffffffffffffffffffffffffffffffffffff16906020019092919050505061038a565b005b6101606004803603606081101561012057600080fd5b810190808035906020019092919080359060200190929190803573ffffffffffffffffffffffffffffffffffffffff169060200190929190505050610587565b60405180821515815260200191505060405180910390f35b6101806107a6565b005b6101c46004803603602081101561019857600080fd5b81019080803573ffffffffffffffffffffffffffffffffffffffff169060200190929190505050610861565b005b6101ce6109ae565b604051808273ffffffffffffffffffffffffffffffffffffffff16815260200191505060405180910390f35b61023c6004803603602081101561021057600080fd5b81019080803573ffffffffffffffffffffffffffffffffffffffff1690602001909291905050506109d7565b005b610246610b18565b73ffffffffffffffffffffffffffffffffffffffff166102646109ae565b73ffffffffffffffffffffffffffffffffffffffff16146102ed576040517f08c379a00000000000000000000000000000000000000000000000000000000081526004018080602001828103825260208152602001807f4f776e61626c653a2063616c6c6572206973206e6f7420746865206f776e657281525060200191505060405180910390fd5b60018060008373ffffffffffffffffffffffffffffffffffffffff1673ffffffffffffffffffffffffffffffffffffffff16815260200190815260200160002060006101000a81548160ff0219169083151502179055508073ffffffffffffffffffffffffffffffffffffffff167f9b85e09e3c2da0203ce69fd59b1c0b098235e165f970530306068a69aa147bfe60405160405180910390a250565b610392610b18565b73ffffffffffffffffffffffffffffffffffffffff166103b06109ae565b73ffffffffffffffffffffffffffffffffffffffff1614610439576040517f08c379a00000000000000000000000000000000000000000000000000000000081526004018080602001828103825260208152602001807f4f776e61626c653a2063616c6c6572206973206e6f7420746865206f776e657281525060200191505060405180910390fd5b600081905060008173ffffffffffffffffffffffffffffffffffffffff166370a08231306040518263ffffffff1660e01b8152600401808273ffffffffffffffffffffffffffffffffffffffff16815260200191505060206040518083038186803b1580156104a757600080fd5b505afa1580156104bb573d6000803e3d6000fd5b505050506040513d60208110156104d157600080fd5b810190808051906020019092919050505090506105166104ef610b18565b828473ffffffffffffffffffffffffffffffffffffffff16610b209092919063ffffffff16565b8273ffffffffffffffffffffffffffffffffffffffff16610535610b18565b73ffffffffffffffffffffffffffffffffffffffff167f16d46b28f1a9377c2df78652a0a8e31568b99311665bcec24cbba72edd2e5c2c836040518082815260200191505060405180910390a3505050565b600061059282610bc2565b6105e7576040517f08c379a00000000000000000000000000000000000000000000000000000000081526004018080602001828103825260298152602001806110226029913960400191505060405180910390fd5b600082905060008173ffffffffffffffffffffffffffffffffffffffff1663dd62ed3e610612610b18565b306040518363ffffffff1660e01b8152600401808373ffffffffffffffffffffffffffffffffffffffff1681526020018273ffffffffffffffffffffffffffffffffffffffff1681526020019250505060206040518083038186803b15801561067a57600080fd5b505afa15801561068e573d6000803e3d6000fd5b505050506040513d60208110156106a457600080fd5b8101908080519060200190929190505050905084811461070f576040517f08c379a000000000000000000000000000000000000000000000000000000000815260040180806020018281038252602a81526020018061104b602a913960400191505060405180910390fd5b61074361071a610b18565b30838573ffffffffffffffffffffffffffffffffffffffff16610c18909392919063ffffffff16565b8561074c610b18565b73ffffffffffffffffffffffffffffffffffffffff167f5329683f56e583954924743ff8960e0c67974eaa25cabbbd1c4e55ebabe30af1836040518082815260200191505060405180910390a36001925050509392505050565b6107ae610b18565b73ffffffffffffffffffffffffffffffffffffffff166107cc6109ae565b73ffffffffffffffffffffffffffffffffffffffff1614610855576040517f08c379a00000000000000000000000000000000000000000000000000000000081526004018080602001828103825260208152602001807f4f776e61626c653a2063616c6c6572206973206e6f7420746865206f776e657281525060200191505060405180910390fd5b61085f6000610cd9565b565b610869610b18565b73ffffffffffffffffffffffffffffffffffffffff166108876109ae565b73ffffffffffffffffffffffffffffffffffffffff1614610910576040517f08c379a00000000000000000000000000000000000000000000000000000000081526004018080602001828103825260208152602001807f4f776e61626c653a2063616c6c6572206973206e6f7420746865206f776e657281525060200191505060405180910390fd5b6000600160008373ffffffffffffffffffffffffffffffffffffffff1673ffffffffffffffffffffffffffffffffffffffff16815260200190815260200160002060006101000a81548160ff0219169083151502179055508073ffffffffffffffffffffffffffffffffffffffff167f72ad29d8371e32dbd74347c7b898602c0dbf4a37482e6ed132faeade42a5c4b660405160405180910390a250565b60008060009054906101000a900473ffffffffffffffffffffffffffffffffffffffff16905090565b6109df610b18565b73ffffffffffffffffffffffffffffffffffffffff166109fd6109ae565b73ffffffffffffffffffffffffffffffffffffffff1614610a86576040517f08c379a00000000000000000000000000000000000000000000000000000000081526004018080602001828103825260208152602001807f4f776e61626c653a2063616c6c6572206973206e6f7420746865206f776e657281525060200191505060405180910390fd5b600073ffffffffffffffffffffffffffffffffffffffff168173ffffffffffffffffffffffffffffffffffffffff161415610b0c576040517f08c379a0000000000000000000000000000000000000000000000000000000008152600401808060200182810382526026815260200180610ffc6026913960400191505060405180910390fd5b610b1581610cd9565b50565b600033905090565b610bbd8363a9059cbb60e01b8484604051602401808373ffffffffffffffffffffffffffffffffffffffff16815260200182815260200192505050604051602081830303815290604052907bffffffffffffffffffffffffffffffffffffffffffffffffffffffff19166020820180517bffffffffffffffffffffffffffffffffffffffffffffffffffffffff8381831617835250505050610d9d565b505050565b6000600160008373ffffffffffffffffffffffffffffffffffffffff1673ffffffffffffffffffffffffffffffffffffffff16815260200190815260200160002060009054906101000a900460ff169050919050565b610cd3846323b872dd60e01b858585604051602401808473ffffffffffffffffffffffffffffffffffffffff1681526020018373ffffffffffffffffffffffffffffffffffffffff1681526020018281526020019350505050604051602081830303815290604052907bffffffffffffffffffffffffffffffffffffffffffffffffffffffff19166020820180517bffffffffffffffffffffffffffffffffffffffffffffffffffffffff8381831617835250505050610d9d565b50505050565b60008060009054906101000a900473ffffffffffffffffffffffffffffffffffffffff169050816000806101000a81548173ffffffffffffffffffffffffffffffffffffffff021916908373ffffffffffffffffffffffffffffffffffffffff1602179055508173ffffffffffffffffffffffffffffffffffffffff168173ffffffffffffffffffffffffffffffffffffffff167f8be0079c531659141344cd1fd0a4f28419497f9722a3daafe3b4186f6b6457e060405160405180910390a35050565b610dbc8273ffffffffffffffffffffffffffffffffffffffff16610fe8565b610e2e576040517f08c379a000000000000000000000000000000000000000000000000000000000815260040180806020018281038252601f8152602001807f5361666545524332303a2063616c6c20746f206e6f6e2d636f6e74726163740081525060200191505060405180910390fd5b600060608373ffffffffffffffffffffffffffffffffffffffff16836040518082805190602001908083835b60208310610e7d5780518252602082019150602081019050602083039250610e5a565b6001836020036101000a0380198251168184511680821785525050505050509050019150506000604051808303816000865af19150503d8060008114610edf576040519150601f19603f3d011682016040523d82523d6000602084013e610ee4565b606091505b509150915081610f5c576040517f08c379a00000000000000000000000000000000000000000000000000000000081526004018080602001828103825260208152602001807f5361666545524332303a206c6f772d6c6576656c2063616c6c206661696c656481525060200191505060405180910390fd5b600081511115610fe257808060200190516020811015610f7b57600080fd5b8101908080519060200190929190505050610fe1576040517f08c379a000000000000000000000000000000000000000000000000000000000815260040180806020018281038252602a815260200180611075602a913960400191505060405180910390fd5b5b50505050565b600080823b90506000811191505091905056fe4f776e61626c653a206e6577206f776e657220697320746865207a65726f20616464726573735061796d656e742e536f6c3a205061796d656e7420746f6b656e20697320756e737570706f727465645061796d656e742e536f6c3a207061796d656e7420616d6f756e7420646f6573206e6f742074616c6c795361666545524332303a204552433230206f7065726174696f6e20646964206e6f742073756363656564a26469706673582212203902600489644d7dd8cc000496e5ffc0a23d058111b5d7f852349fb21cf001af64736f6c63430007000033",
  "immutableReferences": {},
  "source": "// SPDX-License-Identifier: MIT\r\n\r\npragma solidity 0.7.0;\r\nimport \"./libraries/SafeMath.sol\";\r\nimport \"./libraries/SafeERC20.sol\";\r\nimport \"./libraries/Address.sol\";\r\nimport \"./libraries/Ownable.sol\";\r\nimport \"./interfaces/IERC20.sol\";\r\n\r\n//My test library for feeless transactions\r\n// import \"./Feeless.sol\";\r\n\r\ncontract Payment is Ownable  {\r\n    using SafeMath for uint256;\r\n    using SafeERC20 for IERC20;\r\n    \r\n    //event to notify the backend/frontend that a transaction has occured\r\n    event DepositReceived(address indexed from, bytes32 indexed txRef, uint256 amount); \r\n    event PaymentWithdrawn(address indexed from, address indexed tokenContract, uint256 amount); \r\n\r\n    event CurrencyEnabled(address indexed tokenContract);\r\n    event CurrencyDisabled(address indexed tokenContract);\r\n\r\n\r\n    mapping(address=> bool) _acceptedCurrencies;\r\n    \r\n    constructor(address tokenContract)  \r\n    {\r\n        _acceptedCurrencies[tokenContract] = true;\r\n        emit CurrencyEnabled(tokenContract);\r\n\r\n    }\r\n\r\n    function enableCurrency(address tokenContract) external  onlyOwner\r\n    {\r\n        _acceptedCurrencies[tokenContract] = true;\r\n        emit CurrencyEnabled(tokenContract);\r\n    }\r\n\r\n    function disableCurrency(address tokenContract) external onlyOwner\r\n    {\r\n        _acceptedCurrencies[tokenContract] = false;\r\n        emit CurrencyDisabled(tokenContract);\r\n    }\r\n\r\n    function isTokenSupported(address tokenContract) internal view returns (bool)\r\n    {   \r\n        return _acceptedCurrencies[tokenContract];\r\n    }\r\n     \r\n    \r\n\r\n    function withdraw(address tokenAddress) external onlyOwner {\r\n        IERC20 token = IERC20(tokenAddress);\r\n        uint256 balance = token.balanceOf(address(this));\r\n        token.safeTransfer(_msgSender(), balance);     \r\n        emit PaymentWithdrawn(_msgSender(),tokenAddress,balance) ;\r\n    }\r\n\r\n    function deposit(bytes32 txRef, uint256 txAmount, address tokenContract) external returns (bool) {\r\n\r\n        require(isTokenSupported(tokenContract), \"Payment.Sol: Payment token is unsupported\");\r\n        IERC20 token = IERC20(tokenContract);\r\n        uint256 allowance = token.allowance(_msgSender(), address(this));\r\n\r\n        require(allowance==txAmount,\"Payment.Sol: payment amount does not tally\");\r\n\r\n        token.safeTransferFrom(_msgSender(),address(this),allowance);\r\n        emit DepositReceived(_msgSender(), txRef, allowance);\r\n        return true;\r\n    }\r\n    \r\n}",
  "sourcePath": "C:\\Users\\Iyke\\Documents\\dApps\\react-tidos-pay\\src\\contracts\\Payment.sol",
  "compiler": {
    "name": "solc",
    "version": "0.7.0+commit.9e61f92b.Emscripten.clang"
  },
  "schemaVersion": "3.4.3",
  "updatedAt": "2021-10-26T12:15:47.726Z",
  "devdoc": {
    "kind": "dev",
    "methods": {
      "owner()": {
        "details": "Returns the address of the current owner."
      },
      "renounceOwnership()": {
        "details": "Leaves the contract without owner. It will not be possible to call `onlyOwner` functions anymore. Can only be called by the current owner. NOTE: Renouncing ownership will leave the contract without an owner, thereby removing any functionality that is only available to the owner."
      },
      "transferOwnership(address)": {
        "details": "Transfers ownership of the contract to a new account (`newOwner`). Can only be called by the current owner."
      }
    },
    "version": 1
  },
  "userdoc": {
    "kind": "user",
    "methods": {},
    "version": 1
  }
}