{
  "contractName": "Payment",
  "abi": [
    {
      "inputs": [
        {
          "internalType": "address",
          "name": "tokenContract",
          "type": "address"
        }
      ],
      "stateMutability": "nonpayable",
      "type": "constructor"
    },
    {
      "anonymous": false,
      "inputs": [
        {
          "indexed": true,
          "internalType": "address",
          "name": "tokenContract",
          "type": "address"
        }
      ],
      "name": "CurrencyDisabled",
      "type": "event"
    },
    {
      "anonymous": false,
      "inputs": [
        {
          "indexed": true,
          "internalType": "address",
          "name": "tokenContract",
          "type": "address"
        }
      ],
      "name": "CurrencyEnabled",
      "type": "event"
    },
    {
      "anonymous": false,
      "inputs": [
        {
          "indexed": true,
          "internalType": "address",
          "name": "from",
          "type": "address"
        },
        {
          "indexed": true,
          "internalType": "bytes32",
          "name": "txRef",
          "type": "bytes32"
        },
        {
          "indexed": false,
          "internalType": "uint256",
          "name": "amount",
          "type": "uint256"
        }
      ],
      "name": "DepositReceived",
      "type": "event"
    },
    {
      "anonymous": false,
      "inputs": [
        {
          "indexed": true,
          "internalType": "address",
          "name": "previousOwner",
          "type": "address"
        },
        {
          "indexed": true,
          "internalType": "address",
          "name": "newOwner",
          "type": "address"
        }
      ],
      "name": "OwnershipTransferred",
      "type": "event"
    },
    {
      "anonymous": false,
      "inputs": [
        {
          "indexed": true,
          "internalType": "address",
          "name": "from",
          "type": "address"
        },
        {
          "indexed": true,
          "internalType": "address",
          "name": "tokenContract",
          "type": "address"
        },
        {
          "indexed": false,
          "internalType": "uint256",
          "name": "amount",
          "type": "uint256"
        }
      ],
      "name": "PaymentWithdrawn",
      "type": "event"
    },
    {
      "inputs": [],
      "name": "owner",
      "outputs": [
        {
          "internalType": "address",
          "name": "",
          "type": "address"
        }
      ],
      "stateMutability": "view",
      "type": "function",
      "constant": true
    },
    {
      "inputs": [],
      "name": "renounceOwnership",
      "outputs": [],
      "stateMutability": "nonpayable",
      "type": "function"
    },
    {
      "inputs": [
        {
          "internalType": "address",
          "name": "newOwner",
          "type": "address"
        }
      ],
      "name": "transferOwnership",
      "outputs": [],
      "stateMutability": "nonpayable",
      "type": "function"
    },
    {
      "inputs": [
        {
          "internalType": "address",
          "name": "tokenContract",
          "type": "address"
        }
      ],
      "name": "enableCurrency",
      "outputs": [],
      "stateMutability": "nonpayable",
      "type": "function"
    },
    {
      "inputs": [
        {
          "internalType": "address",
          "name": "tokenContract",
          "type": "address"
        }
      ],
      "name": "disableCurrency",
      "outputs": [],
      "stateMutability": "nonpayable",
      "type": "function"
    },
    {
      "inputs": [
        {
          "internalType": "address",
          "name": "tokenAddress",
          "type": "address"
        }
      ],
      "name": "withdraw",
      "outputs": [],
      "stateMutability": "nonpayable",
      "type": "function"
    },
    {
      "inputs": [
        {
          "internalType": "bytes32",
          "name": "txRef",
          "type": "bytes32"
        },
        {
          "internalType": "uint256",
          "name": "txAmount",
          "type": "uint256"
        },
        {
          "internalType": "address",
          "name": "tokenContract",
          "type": "address"
        }
      ],
      "name": "deposit",
      "outputs": [],
      "stateMutability": "nonpayable",
      "type": "function"
    }
  ],
  "bytecode": "0x608060405234801561001057600080fd5b506040516112913803806112918339818101604052602081101561003357600080fd5b810190808051906020019092919050505061006061005561010060201b60201c565b61010860201b60201c565b60018060008373ffffffffffffffffffffffffffffffffffffffff1673ffffffffffffffffffffffffffffffffffffffff16815260200190815260200160002060006101000a81548160ff0219169083151502179055508073ffffffffffffffffffffffffffffffffffffffff167f9b85e09e3c2da0203ce69fd59b1c0b098235e165f970530306068a69aa147bfe60405160405180910390a2506101cc565b600033905090565b60008060009054906101000a900473ffffffffffffffffffffffffffffffffffffffff169050816000806101000a81548173ffffffffffffffffffffffffffffffffffffffff021916908373ffffffffffffffffffffffffffffffffffffffff1602179055508173ffffffffffffffffffffffffffffffffffffffff168173ffffffffffffffffffffffffffffffffffffffff167f8be0079c531659141344cd1fd0a4f28419497f9722a3daafe3b4186f6b6457e060405160405180910390a35050565b6110b6806101db6000396000f3fe608060405234801561001057600080fd5b506004361061007d5760003560e01c8063715018a61161005b578063715018a61461016257806388ca74e21461016c5780638da5cb5b146101b0578063f2fde38b146101e45761007d565b80633563d6f91461008257806351cff8d9146100c65780636ebf181b1461010a575b600080fd5b6100c46004803603602081101561009857600080fd5b81019080803573ffffffffffffffffffffffffffffffffffffffff169060200190929190505050610228565b005b610108600480360360208110156100dc57600080fd5b81019080803573ffffffffffffffffffffffffffffffffffffffff169060200190929190505050610374565b005b6101606004803603606081101561012057600080fd5b810190808035906020019092919080359060200190929190803573ffffffffffffffffffffffffffffffffffffffff169060200190929190505050610571565b005b61016a610788565b005b6101ae6004803603602081101561018257600080fd5b81019080803573ffffffffffffffffffffffffffffffffffffffff169060200190929190505050610843565b005b6101b8610990565b604051808273ffffffffffffffffffffffffffffffffffffffff16815260200191505060405180910390f35b610226600480360360208110156101fa57600080fd5b81019080803573ffffffffffffffffffffffffffffffffffffffff1690602001909291905050506109b9565b005b610230610afa565b73ffffffffffffffffffffffffffffffffffffffff1661024e610990565b73ffffffffffffffffffffffffffffffffffffffff16146102d7576040517f08c379a00000000000000000000000000000000000000000000000000000000081526004018080602001828103825260208152602001807f4f776e61626c653a2063616c6c6572206973206e6f7420746865206f776e657281525060200191505060405180910390fd5b60018060008373ffffffffffffffffffffffffffffffffffffffff1673ffffffffffffffffffffffffffffffffffffffff16815260200190815260200160002060006101000a81548160ff0219169083151502179055508073ffffffffffffffffffffffffffffffffffffffff167f9b85e09e3c2da0203ce69fd59b1c0b098235e165f970530306068a69aa147bfe60405160405180910390a250565b61037c610afa565b73ffffffffffffffffffffffffffffffffffffffff1661039a610990565b73ffffffffffffffffffffffffffffffffffffffff1614610423576040517f08c379a00000000000000000000000000000000000000000000000000000000081526004018080602001828103825260208152602001807f4f776e61626c653a2063616c6c6572206973206e6f7420746865206f776e657281525060200191505060405180910390fd5b600081905060008173ffffffffffffffffffffffffffffffffffffffff166370a08231306040518263ffffffff1660e01b8152600401808273ffffffffffffffffffffffffffffffffffffffff16815260200191505060206040518083038186803b15801561049157600080fd5b505afa1580156104a5573d6000803e3d6000fd5b505050506040513d60208110156104bb57600080fd5b810190808051906020019092919050505090506105006104d9610afa565b828473ffffffffffffffffffffffffffffffffffffffff16610b029092919063ffffffff16565b8273ffffffffffffffffffffffffffffffffffffffff1661051f610afa565b73ffffffffffffffffffffffffffffffffffffffff167f16d46b28f1a9377c2df78652a0a8e31568b99311665bcec24cbba72edd2e5c2c836040518082815260200191505060405180910390a3505050565b61057a81610ba4565b6105cf576040517f08c379a00000000000000000000000000000000000000000000000000000000081526004018080602001828103825260298152602001806110046029913960400191505060405180910390fd5b600081905060008173ffffffffffffffffffffffffffffffffffffffff1663dd62ed3e6105fa610afa565b306040518363ffffffff1660e01b8152600401808373ffffffffffffffffffffffffffffffffffffffff1681526020018273ffffffffffffffffffffffffffffffffffffffff1681526020019250505060206040518083038186803b15801561066257600080fd5b505afa158015610676573d6000803e3d6000fd5b505050506040513d602081101561068c57600080fd5b810190808051906020019092919050505090508381146106f7576040517f08c379a000000000000000000000000000000000000000000000000000000000815260040180806020018281038252602a81526020018061102d602a913960400191505060405180910390fd5b61072b610702610afa565b30838573ffffffffffffffffffffffffffffffffffffffff16610bfa909392919063ffffffff16565b84610734610afa565b73ffffffffffffffffffffffffffffffffffffffff167f5329683f56e583954924743ff8960e0c67974eaa25cabbbd1c4e55ebabe30af1836040518082815260200191505060405180910390a35050505050565b610790610afa565b73ffffffffffffffffffffffffffffffffffffffff166107ae610990565b73ffffffffffffffffffffffffffffffffffffffff1614610837576040517f08c379a00000000000000000000000000000000000000000000000000000000081526004018080602001828103825260208152602001807f4f776e61626c653a2063616c6c6572206973206e6f7420746865206f776e657281525060200191505060405180910390fd5b6108416000610cbb565b565b61084b610afa565b73ffffffffffffffffffffffffffffffffffffffff16610869610990565b73ffffffffffffffffffffffffffffffffffffffff16146108f2576040517f08c379a00000000000000000000000000000000000000000000000000000000081526004018080602001828103825260208152602001807f4f776e61626c653a2063616c6c6572206973206e6f7420746865206f776e657281525060200191505060405180910390fd5b6000600160008373ffffffffffffffffffffffffffffffffffffffff1673ffffffffffffffffffffffffffffffffffffffff16815260200190815260200160002060006101000a81548160ff0219169083151502179055508073ffffffffffffffffffffffffffffffffffffffff167f72ad29d8371e32dbd74347c7b898602c0dbf4a37482e6ed132faeade42a5c4b660405160405180910390a250565b60008060009054906101000a900473ffffffffffffffffffffffffffffffffffffffff16905090565b6109c1610afa565b73ffffffffffffffffffffffffffffffffffffffff166109df610990565b73ffffffffffffffffffffffffffffffffffffffff1614610a68576040517f08c379a00000000000000000000000000000000000000000000000000000000081526004018080602001828103825260208152602001807f4f776e61626c653a2063616c6c6572206973206e6f7420746865206f776e657281525060200191505060405180910390fd5b600073ffffffffffffffffffffffffffffffffffffffff168173ffffffffffffffffffffffffffffffffffffffff161415610aee576040517f08c379a0000000000000000000000000000000000000000000000000000000008152600401808060200182810382526026815260200180610fde6026913960400191505060405180910390fd5b610af781610cbb565b50565b600033905090565b610b9f8363a9059cbb60e01b8484604051602401808373ffffffffffffffffffffffffffffffffffffffff16815260200182815260200192505050604051602081830303815290604052907bffffffffffffffffffffffffffffffffffffffffffffffffffffffff19166020820180517bffffffffffffffffffffffffffffffffffffffffffffffffffffffff8381831617835250505050610d7f565b505050565b6000600160008373ffffffffffffffffffffffffffffffffffffffff1673ffffffffffffffffffffffffffffffffffffffff16815260200190815260200160002060009054906101000a900460ff169050919050565b610cb5846323b872dd60e01b858585604051602401808473ffffffffffffffffffffffffffffffffffffffff1681526020018373ffffffffffffffffffffffffffffffffffffffff1681526020018281526020019350505050604051602081830303815290604052907bffffffffffffffffffffffffffffffffffffffffffffffffffffffff19166020820180517bffffffffffffffffffffffffffffffffffffffffffffffffffffffff8381831617835250505050610d7f565b50505050565b60008060009054906101000a900473ffffffffffffffffffffffffffffffffffffffff169050816000806101000a81548173ffffffffffffffffffffffffffffffffffffffff021916908373ffffffffffffffffffffffffffffffffffffffff1602179055508173ffffffffffffffffffffffffffffffffffffffff168173ffffffffffffffffffffffffffffffffffffffff167f8be0079c531659141344cd1fd0a4f28419497f9722a3daafe3b4186f6b6457e060405160405180910390a35050565b610d9e8273ffffffffffffffffffffffffffffffffffffffff16610fca565b610e10576040517f08c379a000000000000000000000000000000000000000000000000000000000815260040180806020018281038252601f8152602001807f5361666545524332303a2063616c6c20746f206e6f6e2d636f6e74726163740081525060200191505060405180910390fd5b600060608373ffffffffffffffffffffffffffffffffffffffff16836040518082805190602001908083835b60208310610e5f5780518252602082019150602081019050602083039250610e3c565b6001836020036101000a0380198251168184511680821785525050505050509050019150506000604051808303816000865af19150503d8060008114610ec1576040519150601f19603f3d011682016040523d82523d6000602084013e610ec6565b606091505b509150915081610f3e576040517f08c379a00000000000000000000000000000000000000000000000000000000081526004018080602001828103825260208152602001807f5361666545524332303a206c6f772d6c6576656c2063616c6c206661696c656481525060200191505060405180910390fd5b600081511115610fc457808060200190516020811015610f5d57600080fd5b8101908080519060200190929190505050610fc3576040517f08c379a000000000000000000000000000000000000000000000000000000000815260040180806020018281038252602a815260200180611057602a913960400191505060405180910390fd5b5b50505050565b600080823b90506000811191505091905056fe4f776e61626c653a206e6577206f776e657220697320746865207a65726f20616464726573735061796d656e742e536f6c3a205061796d656e7420746f6b656e20697320756e737570706f727465645061796d656e742e536f6c3a207061796d656e7420616d6f756e7420646f6573206e6f742074616c6c795361666545524332303a204552433230206f7065726174696f6e20646964206e6f742073756363656564a2646970667358221220ce73601f55bf2a0c0412946a10ce10c5552a4c70f2ceb16e5661a8c82106a04e64736f6c63430007000033",
  "immutableReferences": {},
  "source": "// SPDX-License-Identifier: MIT\r\n\r\npragma solidity 0.7.0;\r\nimport \"./libraries/SafeMath.sol\";\r\nimport \"./libraries/SafeERC20.sol\";\r\nimport \"./libraries/Address.sol\";\r\nimport \"./libraries/Ownable.sol\";\r\nimport \"./interfaces/IERC20.sol\";\r\n\r\n\r\n\r\ncontract Payment is Ownable {\r\n    using SafeMath for uint256;\r\n    using SafeERC20 for IERC20;\r\n    \r\n    //event to notify the backend/frontend that a transaction has occured\r\n    event DepositReceived(address indexed from, bytes32 indexed txRef, uint256 amount); \r\n    event PaymentWithdrawn(address indexed from, address indexed tokenContract, uint256 amount); \r\n\r\n    event CurrencyEnabled(address indexed tokenContract);\r\n    event CurrencyDisabled(address indexed tokenContract);\r\n\r\n\r\n    mapping(address=> bool) _acceptedCurrencies;\r\n    \r\n    constructor(address tokenContract)  \r\n    {\r\n        _acceptedCurrencies[tokenContract] = true;\r\n        emit CurrencyEnabled(tokenContract);\r\n\r\n    }\r\n\r\n    function enableCurrency(address tokenContract) external  onlyOwner\r\n    {\r\n        _acceptedCurrencies[tokenContract] = true;\r\n        emit CurrencyEnabled(tokenContract);\r\n    }\r\n\r\n    function disableCurrency(address tokenContract) external onlyOwner\r\n    {\r\n        _acceptedCurrencies[tokenContract] = false;\r\n        emit CurrencyDisabled(tokenContract);\r\n    }\r\n\r\n    function isTokenSupported(address tokenContract) internal view returns (bool)\r\n    {\r\n        return _acceptedCurrencies[tokenContract];\r\n    }\r\n     \r\n    \r\n\r\n    function withdraw(address tokenAddress) external onlyOwner {\r\n        IERC20 token = IERC20(tokenAddress);\r\n        uint256 balance = token.balanceOf(address(this));\r\n        token.safeTransfer(_msgSender(), balance);     \r\n        emit PaymentWithdrawn(_msgSender(),tokenAddress,balance) ;\r\n    }\r\n\r\n    function deposit(bytes32 txRef, uint256 txAmount, address tokenContract) external {\r\n\r\n        require(isTokenSupported(tokenContract), \"Payment.Sol: Payment token is unsupported\");\r\n        IERC20 token = IERC20(tokenContract);\r\n        uint256 allowance = token.allowance(_msgSender(), address(this));\r\n\r\n        require(allowance==txAmount,\"Payment.Sol: payment amount does not tally\");\r\n\r\n        token.safeTransferFrom(_msgSender(),address(this),allowance);\r\n        emit DepositReceived(_msgSender(), txRef, allowance);\r\n    }\r\n    \r\n}",
  "sourcePath": "C:\\Users\\Iyke\\Documents\\dApps\\react-tidos-pay\\src\\contracts\\Payment.sol",
  "compiler": {
    "name": "solc",
    "version": "0.7.0+commit.9e61f92b.Emscripten.clang"
  },
  "schemaVersion": "3.4.3",
  "updatedAt": "2021-10-24T07:00:38.911Z",
  "networkType": "ethereum",
  "devdoc": {
    "kind": "dev",
    "methods": {
      "owner()": {
        "details": "Returns the address of the current owner."
      },
      "renounceOwnership()": {
        "details": "Leaves the contract without owner. It will not be possible to call `onlyOwner` functions anymore. Can only be called by the current owner. NOTE: Renouncing ownership will leave the contract without an owner, thereby removing any functionality that is only available to the owner."
      },
      "transferOwnership(address)": {
        "details": "Transfers ownership of the contract to a new account (`newOwner`). Can only be called by the current owner."
      }
    },
    "version": 1
  },
  "userdoc": {
    "kind": "user",
    "methods": {},
    "version": 1
  }
}