{
  "contractName": "Wallet",
  "abi": [
    {
      "inputs": [
        {
          "internalType": "address",
          "name": "tokenContract",
          "type": "address"
        }
      ],
      "stateMutability": "nonpayable",
      "type": "constructor"
    },
    {
      "anonymous": false,
      "inputs": [
        {
          "indexed": true,
          "internalType": "address",
          "name": "previousOwner",
          "type": "address"
        },
        {
          "indexed": true,
          "internalType": "address",
          "name": "newOwner",
          "type": "address"
        }
      ],
      "name": "OwnershipTransferred",
      "type": "event"
    },
    {
      "inputs": [],
      "name": "owner",
      "outputs": [
        {
          "internalType": "address",
          "name": "",
          "type": "address"
        }
      ],
      "stateMutability": "view",
      "type": "function",
      "constant": true
    },
    {
      "inputs": [],
      "name": "renounceOwnership",
      "outputs": [],
      "stateMutability": "nonpayable",
      "type": "function"
    },
    {
      "inputs": [
        {
          "internalType": "address",
          "name": "newOwner",
          "type": "address"
        }
      ],
      "name": "transferOwnership",
      "outputs": [],
      "stateMutability": "nonpayable",
      "type": "function"
    },
    {
      "inputs": [
        {
          "internalType": "string",
          "name": "email",
          "type": "string"
        },
        {
          "internalType": "string",
          "name": "key",
          "type": "string"
        },
        {
          "internalType": "address",
          "name": "wallet",
          "type": "address"
        }
      ],
      "name": "setWallet",
      "outputs": [],
      "stateMutability": "nonpayable",
      "type": "function"
    },
    {
      "inputs": [
        {
          "internalType": "address",
          "name": "_address",
          "type": "address"
        }
      ],
      "name": "getWallet",
      "outputs": [
        {
          "components": [
            {
              "internalType": "string",
              "name": "Email",
              "type": "string"
            },
            {
              "internalType": "string",
              "name": "EncryptedKey",
              "type": "string"
            },
            {
              "internalType": "bool",
              "name": "Exists",
              "type": "bool"
            }
          ],
          "internalType": "struct UserWallet",
          "name": "",
          "type": "tuple"
        }
      ],
      "stateMutability": "view",
      "type": "function",
      "constant": true
    },
    {
      "inputs": [
        {
          "internalType": "address",
          "name": "_address",
          "type": "address"
        }
      ],
      "name": "getBalance",
      "outputs": [
        {
          "internalType": "uint256",
          "name": "",
          "type": "uint256"
        }
      ],
      "stateMutability": "view",
      "type": "function",
      "constant": true
    }
  ],
  "bytecode": "0x60806040523480156200001157600080fd5b506040516200108f3803806200108f833981810160405281019062000037919062000182565b620000576200004b6200009f60201b60201c565b620000a760201b60201c565b80600260006101000a81548173ffffffffffffffffffffffffffffffffffffffff021916908373ffffffffffffffffffffffffffffffffffffffff16021790555050620001fc565b600033905090565b60008060009054906101000a900473ffffffffffffffffffffffffffffffffffffffff169050816000806101000a81548173ffffffffffffffffffffffffffffffffffffffff021916908373ffffffffffffffffffffffffffffffffffffffff1602179055508173ffffffffffffffffffffffffffffffffffffffff168173ffffffffffffffffffffffffffffffffffffffff167f8be0079c531659141344cd1fd0a4f28419497f9722a3daafe3b4186f6b6457e060405160405180910390a35050565b6000815190506200017c81620001e2565b92915050565b6000602082840312156200019557600080fd5b6000620001a5848285016200016b565b91505092915050565b6000620001bb82620001c2565b9050919050565b600073ffffffffffffffffffffffffffffffffffffffff82169050919050565b620001ed81620001ae565b8114620001f957600080fd5b50565b610e83806200020c6000396000f3fe608060405234801561001057600080fd5b50600436106100625760003560e01c806304d0a64714610067578063715018a6146100975780638bd1d1a9146100a15780638da5cb5b146100bd578063f2fde38b146100db578063f8b2cb4f146100f7575b600080fd5b610081600480360381019061007c91906109aa565b610127565b60405161008e9190610d29565b60405180910390f35b61009f6102df565b005b6100bb60048036038101906100b691906109d3565b610367565b005b6100c5610540565b6040516100d29190610c8e565b60405180910390f35b6100f560048036038101906100f091906109aa565b610569565b005b610111600480360381019061010c91906109aa565b610661565b60405161011e9190610d4b565b60405180910390f35b61012f610876565b600160008373ffffffffffffffffffffffffffffffffffffffff1673ffffffffffffffffffffffffffffffffffffffff168152602001908152602001600020604051806060016040529081600082018054600181600116156101000203166002900480601f0160208091040260200160405190810160405280929190818152602001828054600181600116156101000203166002900480156102125780601f106101e757610100808354040283529160200191610212565b820191906000526020600020905b8154815290600101906020018083116101f557829003601f168201915b50505050508152602001600182018054600181600116156101000203166002900480601f0160208091040260200160405190810160405280929190818152602001828054600181600116156101000203166002900480156102b45780601f10610289576101008083540402835291602001916102b4565b820191906000526020600020905b81548152906001019060200180831161029757829003601f168201915b505050505081526020016002820160009054906101000a900460ff1615151515815250509050919050565b6102e76107aa565b73ffffffffffffffffffffffffffffffffffffffff16610305610540565b73ffffffffffffffffffffffffffffffffffffffff161461035b576040517f08c379a000000000000000000000000000000000000000000000000000000000815260040161035290610ce9565b60405180910390fd5b61036560006107b2565b565b600160008273ffffffffffffffffffffffffffffffffffffffff1673ffffffffffffffffffffffffffffffffffffffff16815260200190815260200160002060020160009054906101000a900460ff16156103f7576040517f08c379a00000000000000000000000000000000000000000000000000000000081526004016103ee90610d09565b60405180910390fd5b604051806060016040528086868080601f016020809104026020016040519081016040528093929190818152602001838380828437600081840152601f19601f82011690508083019250505050505050815260200184848080601f016020809104026020016040519081016040528093929190818152602001838380828437600081840152601f19601f82011690508083019250505050505050815260200160011515815250600160008373ffffffffffffffffffffffffffffffffffffffff1673ffffffffffffffffffffffffffffffffffffffff16815260200190815260200160002060008201518160000190805190602001906104f8929190610899565b506020820151816001019080519060200190610515929190610899565b5060408201518160020160006101000a81548160ff0219169083151502179055509050505050505050565b60008060009054906101000a900473ffffffffffffffffffffffffffffffffffffffff16905090565b6105716107aa565b73ffffffffffffffffffffffffffffffffffffffff1661058f610540565b73ffffffffffffffffffffffffffffffffffffffff16146105e5576040517f08c379a00000000000000000000000000000000000000000000000000000000081526004016105dc90610ce9565b60405180910390fd5b600073ffffffffffffffffffffffffffffffffffffffff168173ffffffffffffffffffffffffffffffffffffffff161415610655576040517f08c379a000000000000000000000000000000000000000000000000000000000815260040161064c90610ca9565b60405180910390fd5b61065e816107b2565b50565b6000600160008373ffffffffffffffffffffffffffffffffffffffff1673ffffffffffffffffffffffffffffffffffffffff16815260200190815260200160002060020160009054906101000a900460ff166106f2576040517f08c379a00000000000000000000000000000000000000000000000000000000081526004016106e990610cc9565b60405180910390fd5b6000600260009054906101000a900473ffffffffffffffffffffffffffffffffffffffff1690508073ffffffffffffffffffffffffffffffffffffffff166370a08231846040518263ffffffff1660e01b81526004016107529190610c8e565b60206040518083038186803b15801561076a57600080fd5b505afa15801561077e573d6000803e3d6000fd5b505050506040513d601f19601f820116820180604052508101906107a29190610a5c565b915050919050565b600033905090565b60008060009054906101000a900473ffffffffffffffffffffffffffffffffffffffff169050816000806101000a81548173ffffffffffffffffffffffffffffffffffffffff021916908373ffffffffffffffffffffffffffffffffffffffff1602179055508173ffffffffffffffffffffffffffffffffffffffff168173ffffffffffffffffffffffffffffffffffffffff167f8be0079c531659141344cd1fd0a4f28419497f9722a3daafe3b4186f6b6457e060405160405180910390a35050565b604051806060016040528060608152602001606081526020016000151581525090565b828054600181600116156101000203166002900490600052602060002090601f016020900481019282601f106108da57805160ff1916838001178555610908565b82800160010185558215610908579182015b828111156109075782518255916020019190600101906108ec565b5b5090506109159190610919565b5090565b5b8082111561093257600081600090555060010161091a565b5090565b60008135905061094581610e1f565b92915050565b60008083601f84011261095d57600080fd5b8235905067ffffffffffffffff81111561097657600080fd5b60208301915083600182028301111561098e57600080fd5b9250929050565b6000815190506109a481610e36565b92915050565b6000602082840312156109bc57600080fd5b60006109ca84828501610936565b91505092915050565b6000806000806000606086880312156109eb57600080fd5b600086013567ffffffffffffffff811115610a0557600080fd5b610a118882890161094b565b9550955050602086013567ffffffffffffffff811115610a3057600080fd5b610a3c8882890161094b565b93509350506040610a4f88828901610936565b9150509295509295909350565b600060208284031215610a6e57600080fd5b6000610a7c84828501610995565b91505092915050565b610a8e81610d93565b82525050565b610a9d81610da5565b82525050565b6000610aae82610d66565b610ab88185610d71565b9350610ac8818560208601610ddb565b610ad181610e0e565b840191505092915050565b6000610ae9602683610d82565b91507f4f776e61626c653a206e6577206f776e657220697320746865207a65726f206160008301527f64647265737300000000000000000000000000000000000000000000000000006020830152604082019050919050565b6000610b4f601d83610d82565b91507f57616c6c65742e736f6c3a204163636f756e74206e6f7420666f756e640000006000830152602082019050919050565b6000610b8f602083610d82565b91507f4f776e61626c653a2063616c6c6572206973206e6f7420746865206f776e65726000830152602082019050919050565b6000610bcf603083610d82565b91507f57616c6c65742e736f6c3a204163636f756e742068617320616c72656164792060008301527f6265656e20696e697469616c697a6564000000000000000000000000000000006020830152604082019050919050565b60006060830160008301518482036000860152610c458282610aa3565b91505060208301518482036020860152610c5f8282610aa3565b9150506040830151610c746040860182610a94565b508091505092915050565b610c8881610dd1565b82525050565b6000602082019050610ca36000830184610a85565b92915050565b60006020820190508181036000830152610cc281610adc565b9050919050565b60006020820190508181036000830152610ce281610b42565b9050919050565b60006020820190508181036000830152610d0281610b82565b9050919050565b60006020820190508181036000830152610d2281610bc2565b9050919050565b60006020820190508181036000830152610d438184610c28565b905092915050565b6000602082019050610d606000830184610c7f565b92915050565b600081519050919050565b600082825260208201905092915050565b600082825260208201905092915050565b6000610d9e82610db1565b9050919050565b60008115159050919050565b600073ffffffffffffffffffffffffffffffffffffffff82169050919050565b6000819050919050565b60005b83811015610df9578082015181840152602081019050610dde565b83811115610e08576000848401525b50505050565b6000601f19601f8301169050919050565b610e2881610d93565b8114610e3357600080fd5b50565b610e3f81610dd1565b8114610e4a57600080fd5b5056fea264697066735822122090ffec8a48630a82e178f563e0224ca9f801295afef1d0d0562ec0df70f1f29064736f6c63430007000033",
  "immutableReferences": {},
  "source": "// SPDX-License-Identifier: MIT\r\n\r\npragma solidity 0.7.0;\r\npragma experimental ABIEncoderV2;\r\n\r\n\r\nimport \"./libraries/SafeMath.sol\";\r\nimport \"./libraries/SafeERC20.sol\";\r\nimport \"./libraries/Address.sol\";\r\nimport \"./libraries/Ownable.sol\";\r\nimport \"./interfaces/IERC20.sol\";\r\n\r\n\r\n\r\n\r\ncontract Wallet is Ownable {\r\n    using SafeMath for uint256;\r\n    using SafeERC20 for IERC20;\r\n       \r\n    mapping(address => UserWallet) private _userWallets;\r\n\r\n    address private _paymentCurrency;\r\n    \r\n    constructor(address tokenContract)  \r\n    {\r\n        _paymentCurrency = tokenContract;\r\n    }\r\n\r\n    function setWallet(string calldata email, string calldata key, address wallet  ) external\r\n    {\r\n        require(!_userWallets[wallet].Exists, \"Wallet.sol: Account has already been initialized\");\r\n        _userWallets[wallet] = UserWallet(email,key, true);\r\n    }\r\n\r\n    function getWallet(address _address) external view returns (UserWallet memory)\r\n    {\r\n        // require(_userWallets[email].Exists, \"Wallet.sol: Account not found\");\r\n\r\n        return _userWallets[_address];\r\n    }\r\n\r\n    function getBalance(address _address) external view returns (uint256)\r\n    {\r\n        require(_userWallets[_address].Exists, \"Wallet.sol: Account not found\");\r\n        IERC20 token  = IERC20(_paymentCurrency);\r\n        return token.balanceOf(_address);\r\n    }\r\n\r\n    \r\n}\r\n\r\nstruct UserWallet\r\n{\r\n    string Email;\r\n    string EncryptedKey;\r\n    bool Exists;\r\n\r\n}",
  "sourcePath": "C:\\Users\\Iyke\\Documents\\dApps\\react-tidos-pay\\src\\contracts\\Wallet.sol",
  "compiler": {
    "name": "solc",
    "version": "0.7.0+commit.9e61f92b.Emscripten.clang"
  },
  "schemaVersion": "3.4.3",
  "updatedAt": "2021-10-24T07:00:38.931Z",
  "networkType": "ethereum",
  "devdoc": {
    "kind": "dev",
    "methods": {
      "owner()": {
        "details": "Returns the address of the current owner."
      },
      "renounceOwnership()": {
        "details": "Leaves the contract without owner. It will not be possible to call `onlyOwner` functions anymore. Can only be called by the current owner. NOTE: Renouncing ownership will leave the contract without an owner, thereby removing any functionality that is only available to the owner."
      },
      "transferOwnership(address)": {
        "details": "Transfers ownership of the contract to a new account (`newOwner`). Can only be called by the current owner."
      }
    },
    "version": 1
  },
  "userdoc": {
    "kind": "user",
    "methods": {},
    "version": 1
  }
}